:020000040800F2
:1000000000000320911E0008811C0008891C0008C4
:10001000911C0008991C0008A11C000800000000A9
:10002000000000000000000000000000A91C000803
:10003000B71C000800000000C51C0008D31C000805
:10004000E11E0008E11E0008E11E0008E11E000894
:10005000E11E0008E11E0008E11E0008E11E000884
:10006000E11E0008E11E0008E11E0008E11E000874
:10007000E11E0008E11E0008E11E0008E11E000864
:10008000E11E0008E11E0008E11E0008E11E000854
:10009000E11E0008E11E0008E11E0008E11E000844
:1000A000E11E0008E11E0008E11E0008E11E000834
:1000B000E11E0008E11E0008E11E0008E11E000824
:1000C000E11E0008E11E0008E11E0008E11E000814
:1000D000E11E0008E11E0008E11E0008E11E000804
:1000E000E11E0008E11E0008E11E0008E11E0008F4
:1000F000E11E0008E11E0008E11E0008E11E0008E4
:10010000E11E0008E11E0008E11E0008E11E0008D3
:10011000E11E0008E11E0008E11E0008E11E0008C3
:10012000E11E0008E11E0008E11E0008E11E0008B3
:10013000E11E0008E11E0008E11E0008E11E0008A3
:10014000E11E0008E11E0008E11E0008E11E000893
:10015000E11E0008E11E0008E11E0008E11E000883
:10016000E11E0008E11E0008E11E0008E11E000873
:10017000E11E0008E11E0008E11E0008000000006A
:10018000E11E0008E11E0008E11E0008E11E000853
:10019000E11E0008E11E0008E11E0008E11E000843
:0C01A000E11E0008E11E0008E11E00083E
:1001B00010B5054C237833B9044B13B10448AFF3A1
:1001C00000800123237010BD4002002000000000C9
:1001D000D08E000808B5034B1BB103490348AFF3A9
:1001E000008008BD0000000044020020D08E0008FE
:1001F00001F0FF01102A2BDB10F0070F08D010F8D8
:10020000013B013A8B422DD010F0070F42B3F6D1DB
:10021000F0B441EA012141EA014122F007047FF0F4
:1002200000070023F0E80256083C85EA010586EA4B
:10023000010685FA47F5A3FA87F586FA47F6A5FA87
:1002400087F68EB9EED1F0BC01F0FF0102F0070293
:1002500032B110F8013B013A83EA010313B1F8D13E
:100260000020704701387047002D06BF354603381F
:10027000073815F0010F07D1013015F4807F02BF58
:10028000013015F4C03F0130F0BC0138704700BFA9
:10029000034613F8012B002AFBD1181A01387047C6
:1002A00081F0004102E000BF83F0004330B54FEA27
:1002B00041044FEA430594EA050F08BF90EA020F94
:1002C0001FBF54EA000C55EA020C7FEA645C7FEA27
:1002D000655C00F0E2804FEA5454D4EB5555B8BF4A
:1002E0006D420CDD2C4480EA020281EA030382EABB
:1002F000000083EA010180EA020281EA0303362D4D
:1003000088BF30BD11F0004F4FEA01314FF4801C1F
:100310004CEA113102D0404261EB410113F0004F31
:100320004FEA03334CEA133302D0524263EB4303E8
:1003300094EA050F00F0A780A4F10104D5F1200E86
:100340000DDB02FA0EFC22FA05F2801841F10001E1
:1003500003FA0EF2801843FA05F359410EE0A5F1B5
:1003600020050EF1200E012A03FA0EFC28BF4CF0E6
:10037000020C43FA05F3C01851EBE37101F000459C
:1003800007D54FF0000EDCF1000C7EEB00006EEBA9
:100390000101B1F5801F1BD3B1F5001F0CD3490833
:1003A0005FEA30004FEA3C0C04F101044FEA44528A
:1003B00012F5800F80F09A80BCF1004F08BF5FEA11
:1003C000500C50F1000041EB045141EA050130BDF1
:1003D0005FEA4C0C404141EB0101013C28BFB1F503
:1003E000801FE9D291F0000F04BF01460020B1FA4E
:1003F00081F308BF2033A3F10B03B3F120020CDA21
:100400000C3208DD02F1140CC2F10C0201FA0CF0FE
:1004100021FA02F10CE002F11402D8BFC2F1200C63
:1004200001FA02F120FA0CFCDCBF41EA0C01904019
:10043000E41AA2BF01EB0451294330BD6FEA040462
:100440001F3C1CDA0C340EDC04F11404C4F120024D
:1004500020FA04F001FA02F340EA030021FA04F35F
:1004600045EA030130BDC4F10C04C4F1200220FAB6
:1004700002F001FA04F340EA0300294630BD21FAF4
:1004800004F0294630BD94F0000F83F4801306BFBA
:1004900081F480110134013D4EE77FEA645C18BFAE
:1004A0007FEA655C29D094EA050F08BF90EA020F45
:1004B00005D054EA000C04BF1946104630BD91EA3D
:1004C000030F1EBF0021002030BD5FEA545C05D140
:1004D0004000494128BF41F0004130BD14F580047F
:1004E0003CBF01F5801130BD01F0004545F0FE41F3
:1004F00041F470014FF0000030BD7FEA645C1ABF28
:10050000194610467FEA655C1CBF0B46024650EA5E
:10051000013406BF52EA033591EA030F41F400218A
:1005200030BD00BF90F0000F04BF0021704730B510
:100530004FF4806404F132044FF000054FF00001E5
:1005400050E700BF90F0000F04BF0021704730B5A6
:100550004FF4806404F1320410F0004548BF40427B
:100560004FF000013EE700BF42004FEAE2014FEAD0
:1005700031014FEA02701FBF12F07F4393F07F4FAB
:1005800081F06051704732F07F4208BF704793F0AE
:100590007F4F04BF41F40021704730B54FF46074C1
:1005A00001F0004521F000411CE700BF50EA0102C4
:1005B00008BF704730B54FF000050AE050EA01026D
:1005C00008BF704730B511F0004502D5404261EBDD
:1005D00041014FF4806404F132045FEA915C3FF41E
:1005E000D8AE4FF003025FEADC0C18BF03325FEABB
:1005F000DC0C18BF033202EBDC02C2F1200300FA6C
:1006000003FC20FA02F001FA03FE40EA0E0021FA90
:1006100002F11444BDE600BF70B54FF0FF0C4CF47E
:10062000E06C1CEA11541DBF1CEA135594EA0C0F30
:1006300095EA0C0F00F0DEF82C4481EA030621EA6B
:100640004C5123EA4C5350EA013518BF52EA0335A6
:1006500041F4801143F4801338D0A0FB02CE4FF058
:100660000005E1FB02E506F00042E0FB03E54FF088
:100670000006E1FB03569CF0000F18BF4EF0010E80
:10068000A4F1FF04B6F5007F64F5407404D25FEA7C
:100690004E0E6D4146EB060642EAC62141EA55512F
:1006A0004FEAC52040EA5E504FEACE2EB4F1FD0C71
:1006B00088BFBCF5E06F1ED8BEF1004F08BF5FEAEF
:1006C000500E50F1000041EB045170BD06F00046A1
:1006D00046EA010140EA020081EA0301B4EB5C044E
:1006E000C2BFD4EB0C0541EA045170BD41F4801146
:1006F0004FF0000E013C00F3AB8014F1360FDEBF6B
:10070000002001F0004170BDC4F10004203C35DA46
:100710000C341BDC04F11404C4F1200500FA05F3C9
:1007200020FA04F001FA05F240EA020001F000426A
:1007300021F0004110EBD37021FA04F642EB0601E0
:100740005EEA430E08BF20EAD37070BDC4F10C040A
:10075000C4F1200500FA04F320FA05F001FA04F2CE
:1007600040EA020001F0004110EBD37041F10001BA
:100770005EEA430E08BF20EAD37070BDC4F12005C5
:1007800000FA05F24EEA020E20FA04F301FA05F22D
:1007900043EA020321FA04F001F0004121FA04F2D5
:1007A00020EA020000EBD3705EEA430E08BF20EAA5
:1007B000D37070BD94F0000F0FD101F000464000DF
:1007C00041EB010111F4801F08BF013CF7D041EA61
:1007D000060195F0000F18BF704703F00046520065
:1007E00043EB030313F4801F08BF013DF7D043EA36
:1007F0000603704794EA0C0F0CEA135518BF95EAEC
:100800000C0F0CD050EA410618BF52EA4306D1D172
:1008100081EA030101F000414FF0000070BD50EA91
:10082000410606BF1046194652EA430619D094EA1B
:100830000C0F02D150EA013613D195EA0C0F05D105
:1008400052EA03361CBF104619460AD181EA030159
:1008500001F0004141F0FE4141F470014FF0000011
:1008600070BD41F0FE4141F4780170BD70B54FF0AC
:10087000FF0C4CF4E06C1CEA11541DBF1CEA13552C
:1008800094EA0C0F95EA0C0F00F0A7F8A4EB05040E
:1008900081EA030E52EA03354FEA013100F0888005
:1008A0004FEA03334FF0805545EA131343EA1263CE
:1008B0004FEA022245EA111545EA10654FEA002683
:1008C0000EF000419D4208BF964244F1FD0404F53C
:1008D000407402D25B084FEA3202B61A65EB030598
:1008E0005B084FEA32024FF480104FF4002CB6EB55
:1008F000020E75EB030E22BFB61A754640EA0C00D5
:100900005B084FEA3202B6EB020E75EB030E22BF14
:10091000B61A754640EA5C005B084FEA3202B6EB55
:10092000020E75EB030E22BFB61A754640EA9C0014
:100930005B084FEA3202B6EB020E75EB030E22BFE4
:10094000B61A754640EADC0055EA060E18D04FEAA2
:10095000051545EA16754FEA06164FEAC30343EA42
:1009600052734FEAC2025FEA1C1CC0D111F4801F0F
:100970000BD141EA00014FF000004FF0004CB6E708
:1009800011F4801F04BF01430020B4F1FD0C88BFA7
:10099000BCF5E06F3FF6AFAEB5EB030C04BFB6EBB2
:1009A000020C5FEA500C50F1000041EB045170BDA5
:1009B0000EF0004E4EEA113114EB5C04C2BFD4EBD2
:1009C0000C0541EA045170BD41F480114FF0000E56
:1009D000013C90E645EA060E8DE60CEA135594EAD2
:1009E0000C0F08BF95EA0C0F3FF43BAF94EA0C0FD5
:1009F0000AD150EA01347FF434AF95EA0C0F7FF44A
:100A000025AF104619462CE795EA0C0F06D152EA9D
:100A100003353FF4FDAE1046194622E750EA410681
:100A200018BF52EA43067FF4C5AE50EA41047FF492
:100A30000DAF52EA43057FF4EBAE12E74FF0FF3CF7
:100A400006E000BF4FF0010C02E000BF4FF0010CC8
:100A50004DF804CD4FEA410C7FEA6C5C4FEA430C41
:100A600018BF7FEA6C5C1BD001B050EA410C0CBF90
:100A700052EA430C91EA030F02BF90EA020F0020F2
:100A8000704710F1000F91EA030F58BF994208BF59
:100A900090422CBFD8176FEAE37040F00100704716
:100AA0004FEA410C7FEA6C5C02D150EA013C07D16D
:100AB0004FEA430C7FEA6C5CD6D152EA033CD3D0B8
:100AC0005DF8040B704700BF8446104662468C46B2
:100AD0001946634600E000BF01B5FFF7B7FF0028E5
:100AE00048BF10F1000F01BD4DF808EDFFF7F4FF0E
:100AF0000CBF012000205DF808FB00BF4DF808ED99
:100B0000FFF7EAFF34BF012000205DF808FB00BFBB
:100B10004DF808EDFFF7E0FF94BF012000205DF8DD
:100B200008FB00BF4DF808EDFFF7CEFF94BF012092
:100B300000205DF808FB00BF4DF808EDFFF7C4FF8B
:100B400034BF012000205DF808FB00BF4FEA410CD4
:100B50007FEA6C5C02D150EA013C0AD14FEA430CB7
:100B60007FEA6C5C02D152EA033C02D14FF00000F4
:100B700070474FF0010070474FEA410212F5001232
:100B800015D211D56FF47873B3EB625212D94FEAD4
:100B9000C12343F0004343EA505311F0004F23FABE
:100BA00002F018BF404270474FF00000704750EA13
:100BB000013005D111F0004008BF6FF000407047D0
:100BC0004FF00000704700BF53B94AB9002908BF71
:100BD00000281CBF4FF0FF314FF0FF3000F06AB922
:100BE000ADF1080C6DE904CE00F006F8DDF804E084
:100BF000DDE9022304B070472DE9F047089D0C465B
:100C0000002B4ED194468C458646B2FA82F262D9C8
:100C10004AB1C2F12003914020FA03F30CFA02FC1E
:100C2000194300FA02FE4FEA1C471FFA8CF6B1FB8B
:100C3000F7F44FEA1E4307FB141143EA014304FB98
:100C400006F199420AD91CEB030304F1FF3080F04E
:100C50001281994240F20F81023C6344591A1FFAF3
:100C60008EF3B1FBF7F007FB101143EA014300FBE1
:100C700006F69E420AD91CEB030300F1FF3180F017
:100C8000FC809E4240F2F980634402389B1B40EA9C
:100C9000044000211DB1D3400022C5E90032BDE867
:100CA000F0878B4205D90DB1C5E900010021084646
:100CB000F5E7B3FA83F1002946D1A34202D390426B
:100CC000C0F0F080861A64EB03030120002DE6D00B
:100CD000C5E90063E3E7002A40F09080A1EB0C0433
:100CE0004FEA1C481FFA8CF70121B4FBF8F64FEAD3
:100CF0001E4308FB164443EA044307FB06F09842F0
:100D000008D91CEB030306F1FF3402D2984200F22B
:100D1000CD8026461C1A1FFA8EF3B4FBF8F008FBB0
:100D2000104443EA044300FB07F79F4208D91CEB39
:100D3000030300F1FF3402D29F4200F2B08020464C
:100D4000DB1B40EA0640A5E7C1F120068B4022FAF2
:100D500006F71F4320FA06FC04FA01F343EA0C03EA
:100D6000F44000FA01F8380C4FEA1349B4FBF0FEE6
:100D70001FFA87FC00FB1E4449EA04440EFB0CF9F1
:100D8000A14502FA01F20AD93C190EF1FF3A80F0AE
:100D90008480A14540F28180AEF1020E3C44A4EB78
:100DA00009041FFA83F9B4FBF0F300FB134449EA8A
:100DB000044403FB0CFCA44507D93C1903F1FF30A4
:100DC00067D2A44565D9023B3C4443EA0E40A0FBF0
:100DD0000293A4EB0C049C42CE469C4651D34ED0C9
:100DE00055B1B8EB0E0364EB0C0404FA06F6CB40E5
:100DF0001E43CC40C5E90064002150E7C2F1200346
:100E000020FA03F10CFA02FC24FA03F394400C4399
:100E10004FEA1C4800FA02FE1FFA8CF7B3FBF8F009
:100E200008FB1031230C43EA014300FB07F1994210
:100E300008D91CEB030300F1FF362CD299422AD9C2
:100E4000023863445B1AA4B2B3FBF8F108FB113318
:100E500044EA034401FB07F3A34208D91CEB040452
:100E600001F1FF3613D2A34211D902396444E41AC6
:100E700041EA004139E70446F0E6084606E7C8457E
:100E8000AED2B9EB020E63EB070C0138A8E731468E
:100E9000EDE7034699E73046D4E7D6467FE763445B
:100EA00002384DE70646234608460FE7023E6344F4
:100EB00030E700BF704700BF80B584B000AFF86076
:100EC000B9607A60786801F05DFCFB689BB21B0139
:100ED00098B2BB689BB21B0199B21023102201F09B
:100EE000ABFC00BF1037BD4680BD80B586B000AFFB
:100EF000F860B9607A603B6000237B611EE00023EC
:100F00003B6115E07B699B007A681A443B69134496
:100F10001B78012B09D1FA683B69D018BA687B6944
:100F200013443A681946FFF7C7FF3B6901333B6139
:100F30003B69032BE6DD7B6901337B617B69032B16
:100F4000DDDD00BF00BF1837BD4680BD80B500AFF6
:100F5000114B1868114B1968114B1B68114AFFF7A8
:100F6000C4FF4FF4FA7002F00BF80B4B18680B4BF0
:100F700019680D4B1B680B4AFFF7B7FF074B1B683F
:100F80000133064A1360054B1B680F2BE0DD034B52
:100F900000221A60DCE700BF1000002024040020BB
:100FA00018000020000000201400002080B500AFD1
:100FB00001F074FF00F02AF800F040FA00F096F813
:100FC00000F0EEF900F0C4F800F002F900F0B2F918
:100FD00001F064FF00F01AF801F0DEFA4FF0504122
:100FE000002001F05BFB002001F0BCFB054B1B68FF
:100FF000184601F0F9FB044801F0DCFBFFF7A6FFFF
:1010000000BFFDE7140000206400002080B594B00C
:1010100000AF07F1200330220021184606F035F812
:1010200007F10C0300221A605A609A60DA601A61B4
:101030000023BB602B4B1B6C2A4A43F08053136484
:10104000284B1B6C03F08053BB60BB6800237B60A4
:10105000254B1B68244A43F440431360224B1B6812
:1010600003F440437B607B6801233B624FF4803391
:101070007B620223BB634FF48003FB6310233B645A
:10108000B4237B640223BB640723FB6407F12003C2
:10109000184603F0A7FC0346002B01D000F00CFB20
:1010A00003F050FC0346002B01D000F005FB0F239A
:1010B000FB6002233B6100237B614FF4A053BB61C3
:1010C0004FF48053FB6107F10C030521184603F030
:1010D00001FF0346002B01D000F0EEFA00BF5037AD
:1010E000BD4680BD003802400070004080B500AFB2
:1010F000154B164A1A60144B00225A60124B0222FA
:101100009A60114B0022DA600F4B00229A620E4B5C
:101110000222DA620C4B00221A630B4B00225A6344
:10112000094802F021FA0346002B01D000F0C4FA6E
:101130000121054802F076FB0346002B01D000F0A8
:10114000BBFA00BF80BD00BF5C02002000B00240BF
:1011500080B500AF1B4B1C4A1A601A4B1B4A5A60E1
:10116000184B00229A60174B0022DA60154B4FF49F
:1011700080421A61134B00225A61124B00229A617D
:10118000104B0022DA610F4B00221A620D4802F068
:1011900049FF0346002B01D000F08EFA00210948D8
:1011A00003F084F80346002B01D000F085FA0021FB
:1011B000044803F0B7F80346002B01D000F07CFA96
:1011C00000BF80BD9C020020005C0040A0860100A2
:1011D00080B59AB000AF07F13403342200211846DD
:1011E00005F053FF3B4634220021184605F04DFF21
:1011F0004E4B4F4A1A604D4B00225A604B4B002217
:101200009A604A4B0022DA60484B00221A61474B31
:1012100007225A61454B03229A61444B0E22DA6140
:10122000424B05221A62414BFE225A623F4B40F26A
:1012300045129A623D4B4FF48272DA623B4B40F2A8
:1012400047121A63394B002283F83420374B0022AF
:1012500083F83520354B002283F83620334803F0DD
:10126000A1F80346002B01D000F026FA00237B638F
:101270000023BB630023FB6300233B6400237B64E8
:101280000023BB640023FB644FF480633B650523AC
:101290007B650023BB650023FB6500233B660023C1
:1012A00087F86430002387F86530002387F86630BC
:1012B00007F13403002219461C4803F043F90346A2
:1012C000002B01D000F0F8F900233B6000237B6085
:1012D0000023BB600023FB6000233B6100237B6194
:1012E0000023BB614FF48063FB6105233B62002355
:1012F0007B620023BB620023FB62002387F830304F
:10130000002387F83130002387F832303B46012232
:101310001946064803F016F90346002B01D000F0E9
:10132000CBF900BF6837BD4680BD00BFF00200208A
:101330000068014080B500AF174B184A1A60164B81
:101340004FF482725A60144B00229A60124B0022B2
:10135000DA60114B00221A610F4B00225A610E4BCA
:101360004FF400729A610C4B0022DA610A4B0022A2
:101370001A62094B00225A62074B00229A62064BFE
:101380000A22DA62044804F002FA0346002B01D074
:1013900000F092F900BF80BD98030020005001408A
:1013A00080B588B000AF3B1D00221A605A609A6079
:1013B000DA601A615A619A611E4B1F4A1A601D4B0E
:1013C00001225A601B4B00229A601A4B0822DA60F5
:1013D000184B10221A61174B40225A61154B80227C
:1013E0009A61144B0022DA61124B00221A62114BEF
:1013F00000225A620F4B00229A6210237B60102356
:10140000BB601023FB6010233B6110237B61102322
:10141000BB611023FB613B1D1946064804F026F909
:101420000346002B01D000F047F900BF2037BD462E
:1014300080BD00BFF0030020400100A080B58EB049
:1014400000AF07F1240300221A605A609A60DA6044
:101450001A6100233B62924B1B6B914A43F00403D9
:1014600013638F4B1B6B03F004033B623B6A002347
:10147000FB618B4B1B6B8A4A43F020031363884B41
:101480001B6B03F02003FB61FB690023BB61844BF2
:101490001B6B834A43F080031363814B1B6B03F088
:1014A0008003BB61BB6900237B617D4B1B6B7C4A66
:1014B00043F0010313637A4B1B6B03F001037B6161
:1014C0007B6900233B61764B1B6B754A43F002033B
:1014D0001363734B1B6B03F002033B613B690023F7
:1014E000FB606F4B1B6B6E4A43F0400313636C4B06
:1014F0001B6B03F04003FB60FB680023BB60684B81
:101500001B6B674A43F010031363654B1B6B03F0BF
:101510001003BB60BB6800237B60614B1B6B604AA0
:1015200043F0080313635E4B1B6B03F008037B60FF
:101530007B68002216215B4802F05AFD00228021C0
:10154000594802F055FD00224FF44051574802F02F
:101550004FFD00224FF4C041554802F049FD1623CB
:101560007B620123BB620023FB6200233B6307F124
:10157000240319464B4802F083FA48F207037B62C2
:101580004FF49013BB620023FB6207F1240319465A
:10159000454802F075FA80237B620123BB62002379
:1015A000FB6200233B6307F1240319463E4802F027
:1015B00067FA20237B624FF49013BB620023FB6227
:1015C00007F124031946374802F05AFA04237B62D4
:1015D0000023BB620023FB6207F124031946354850
:1015E00002F04EFA4FF450437B620223BB620023A9
:1015F000FB6200233B630C237B6307F12403194642
:101600002C4802F03DFA4FF400537B620023BB628A
:101610000023FB6207F124031946264802F030FA42
:101620004FF400637B620023BB620023FB6207F17F
:10163000240319461D4802F023FA4FF440537B62FD
:101640000123BB620023FB6200233B6307F12403F9
:101650001946164802F014FA4FF4C0637B62022365
:10166000BB620023FB6203233B6307237B6307F119
:10167000240319460C4802F003FA4FF4C0437B627E
:101680000123BB620023FB6200233B6307F12403B9
:101690001946074802F0F4F900BF3837BD4680BD4F
:1016A000003802400008024000000240000C0240E6
:1016B000001802400004024080B400AF72B600BFC0
:1016C00000BFFDE780B582B000AF00237B60104B08
:1016D0005B6C0F4A43F4804353640D4B5B6C03F423
:1016E00080437B607B6800233B60094B1B6C084A8E
:1016F00043F080531364064B1B6C03F080533B6034
:101700003B68072001F030FD00BF0837BD4680BDB3
:101710000038024080B485B000AF78607B681B68F9
:101720000B4A93420DD10023FB600A4B1B6B094A05
:1017300043F400031363074B1B6B03F40003FB60CC
:10174000FB6800BF1437BD465DF8047B704700BFDF
:1017500000B002400038024080B58AB000AF786027
:1017600007F1140300221A605A609A60DA601A6165
:101770007B681B68294A93424BD100233B61284B6D
:101780001B6B274A43F004031363254B1B6B03F0C9
:1017900004033B613B690023FB60214B1B6B204A28
:1017A00043F0010313631E4B1B6B03F00103FB604B
:1017B000FB684FF400737B611223BB610023FB6164
:1017C00000233B6204237B6207F11403194615488A
:1017D00002F056F94FF480737B611223BB61002342
:1017E000FB6100233B6204237B6207F1140319466B
:1017F0000D4802F045F90023BB60094B1B6C084AF9
:1018000043F400031364064B1B6C03F40003BB603A
:10181000BB6800BF2837BD4680BD00BF005C0040EC
:1018200000380240000802400000024080B59AB033
:1018300000AF786007F1540300221A605A609A6082
:10184000DA601A6107F1240330220021184605F0FE
:101850001CFC7B681B68814A934240F0FA80082395
:101860007B6231237B630223FB630023BB6407F1AC
:101870002403184603F03AFD0346002B01D0FFF77E
:101880001BFF00233B62764B5B6C754A43F0806321
:101890005364734B5B6C03F080633B623B6A0023D1
:1018A000FB616F4B1B6B6E4A43F0200313636C4B61
:1018B0001B6B03F02003FB61FB690023BB61684BDA
:1018C0001B6B674A43F001031363654B1B6B03F00B
:1018D0000103BB61BB6900237B61614B1B6B604AE9
:1018E00043F0020313635E4B1B6B03F002037B6147
:1018F0007B6900233B615A4B1B6B594A43F0400301
:101900001363574B1B6B03F040033B613B690023A0
:10191000FB60534B1B6B524A43F004031363504B61
:101920001B6B03F00403FB60FB680023BB604C4BA4
:101930001B6B4B4A43F008031363494B1B6B03F0CB
:101940000803BB60BB684FF480637B650223BB6503
:101950000023FB6500233B660E237B6607F15403DF
:101960001946404802F08CF841F658037B65022383
:10197000BB650023FB6500233B660E237B6607F1F6
:1019800054031946384802F07BF803237B65022391
:10199000BB650023FB6500233B6609237B6607F1DB
:1019A00054031946314802F06BF84FF470637B65BD
:1019B0000223BB650023FB6500233B660E237B6689
:1019C00007F154031946294802F05AF84FF40C6302
:1019D0007B650223BB650023FB6500233B660E236A
:1019E0007B6607F154031946214802F049F84FF489
:1019F00098637B650223BB650023FB6500233B6680
:101A00000E237B6607F1540319461A4802F038F892
:101A100048237B650223BB650023FB6500233B66EF
:101A20000E237B6607F154031946134802F028F889
:101A30004FF4A0537B650223BB650023FB650023A5
:101A40003B6609237B6607F154031946084802F0F8
:101A500017F800BF6837BD4680BD00BF0068014071
:101A6000003802400014024000000240000402401E
:101A70000018024000080240000C024080B58AB005
:101A800000AF786007F1140300221A605A609A6070
:101A9000DA601A617B681B68194A93422CD10023D3
:101AA0003B61184B5B6C174A43F480135364154B2E
:101AB0005B6C03F480133B613B690023FB60114BBB
:101AC0001B6B104A43F0200313630E4B1B6B03F098
:101AD0002003FB60FB684FF460737B610223BB61F2
:101AE0000023FB6100233B6205237B6207F11403A3
:101AF0001946054801F0C4FF00BF2837BD4680BD28
:101B000000500140003802400014024080B582B00D
:101B100000AF78607B681B68084A93420AD1084B83
:101B20005B6C074A23F4801353644FF460710548DB
:101B300002F052F900BF0837BD4680BD0050014099
:101B4000003802400014024080B586B000AF3B1D53
:101B500000221A605A609A60DA601A613B4B1B6877
:101B6000002B6FD1394B01221A6000233B60384BA8
:101B70009B6B374A43F001039363354B9B6B03F038
:101B800001033B603B684FF63F037B600223BB6071
:101B90000023FB6003233B610C237B613B1D194643
:101BA0002C4801F06DFF01237B600223BB60002302
:101BB000FB6003233B610C237B613B1D19462648D8
:101BC00001F05EFF48F237137B600223BB60002305
:101BD000FB6003233B610C237B613B1D19461F48BF
:101BE00001F04EFF4FF683737B600223BB6000233E
:101BF000FB6003233B610C237B613B1D19461848A6
:101C000001F03EFF4CF203737B600223BB600023B4
:101C1000FB6003233B610C237B613B1D194611488C
:101C200001F02EFF60237B600223BB600023FB607A
:101C300003233B610C237B613B1D19460A4801F0DD
:101C40001FFF00E000BF1837BD4680BD28040020FC
:101C50000038024000140240000802400018024010
:101C600000100240000C02400004024080B582B027
:101C700000AF7860FFF768FF00BF0837BD4680BD42
:101C800080B400AF00BFFDE780B400AF00BFFDE748
:101C900080B400AF00BFFDE780B400AF00BFFDE738
:101CA00080B400AF00BFFDE780B400AF00BFBD4609
:101CB0005DF8047B704780B400AF00BFBD465DF89F
:101CC000047B704780B400AF00BFBD465DF8047B65
:101CD000704780B500AF01F033F900BF80BD80B41C
:101CE00000AF01231846BD465DF8047B704780B500
:101CF00082B000AF7860396005F01AFA0346162208
:101D00001A604FF0FF3318460837BD4680BD80B5D6
:101D100082B000AF78604FF0FF317868FFF7E7FFDF
:101D200000BFFDE780B586B000AFF860B9607A60AB
:101D300000237B610AE0AFF300800146BB685A1CB8
:101D4000BA60CAB21A707B6901337B617A697B68B9
:101D50009A42F0DB7B6818461837BD4680BD80B5D7
:101D600086B000AFF860B9607A6000237B6109E05B
:101D7000BB685A1CBA601B781846AFF300807B69B9
:101D800001337B617A697B689A42F1DB7B68184694
:101D90001837BD4680BD80B483B000AF78604FF087
:101DA000FF3318460C37BD465DF8047B704780B49E
:101DB00083B000AF786039603B684FF400525A60DE
:101DC000002318460C37BD465DF8047B704780B48D
:101DD00083B000AF7860012318460C37BD465DF82C
:101DE000047B704780B485B000AFF860B9607A605A
:101DF000002318461437BD465DF8047B7047000089
:101E000080B586B000AF7860144A154BD31A7B6159
:101E10007B693B61134B1B68002B02D1114B124AAB
:101E20001A60104B1A687B6813443A699A4207D2C9
:101E300005F07EF903460C221A604FF0FF3309E0EB
:101E4000084B1B68FB60074B1A687B681344054A04
:101E50001360FB6818461837BD4680BD000003209C
:101E6000000400002C040020D807002080B400AF3C
:101E7000064BD3F88830054A43F47003C2F8883023
:101E800000BFBD465DF8047B704700BF00ED00E079
:101E9000DFF834D0FFF7EAFF0C480D490D4A002364
:101EA00002E0D458C4500433C4188C42F9D30A4A0F
:101EB0000A4C002301E013600432A242FBD305F078
:101EC0003DF9FFF773F87047000003200000002081
:101ED0004002002020B9000840020020D407002062
:101EE000FEE780B500AF00F05DFACA2000F05DF9B2
:101EF000C32000F067F9082000F064F9502000F0DA
:101F000061F9CF2000F051F9002000F05BF9C12009
:101F100000F058F9302000F055F9ED2000F045F9B7
:101F2000642000F04FF9032000F04CF9122000F07B
:101F300049F9812000F046F9E82000F036F98520C3
:101F400000F040F9002000F03DF9782000F03AF967
:101F5000CB2000F02AF9392000F034F92C2000F0D1
:101F600031F9002000F02EF9342000F02BF9022086
:101F700000F028F9F72000F018F9202000F022F9ED
:101F8000EA2000F012F9002000F01CF9002000F017
:101F900019F9B12000F009F9002000F013F91B2015
:101FA00000F010F9B62000F000F90A2000F00AF95C
:101FB000A22000F007F9C02000F0F7F8102000F090
:101FC00001F9C12000F0F1F8102000F0FBF8C52065
:101FD00000F0EBF8452000F0F5F8152000F0F2F8DD
:101FE000C72000F0E2F8902000F0ECF8362000F076
:101FF000DCF8C82000F0E6F8F22000F0D6F8002067
:1020000000F0E0F8B02000F0D0F8C22000F0DAF8DC
:10201000B62000F0CAF80A2000F0D4F8A72000F09B
:10202000D1F8272000F0CEF8042000F0CBF82A20C9
:1020300000F0BBF8002000F0C5F8002000F0C2F866
:10204000002000F0BFF8EF2000F0BCF82B2000F0DB
:10205000ACF8002000F0B6F8002000F0B3F8012042
:1020600000F0B0F83F2000F0ADF8F62000F09DF849
:10207000012000F0A7F8002000F0A4F8062000F0EE
:10208000A1F82C2000F091F8C82000F079FA262061
:1020900000F08BF8012000F095F8E02000F085F8C2
:1020A0000F2000F08FF8292000F08CF8242000F099
:1020B00089F80C2000F086F80E2000F083F8092043
:1020C00000F080F84E2000F07DF8782000F07AF8DB
:1020D0003C2000F077F8092000F074F8132000F09D
:1020E00071F8052000F06EF8172000F06BF8112051
:1020F00000F068F8002000F065F8E12000F055F8E5
:10210000002000F05FF8162000F05CF81B2000F0C3
:1021100059F8042000F056F8112000F053F8072079
:1021200000F050F8312000F04DF8332000F04AF86C
:10213000422000F047F8052000F044F80C2000F0A1
:1021400041F80A2000F03EF8282000F03BF82F204C
:1021500000F038F80F2000F035F8112000F025F8D5
:10216000C82000F00DFA292000F01FF82C2000F004
:102170001CF800BF80BD80B500AF00F013F903214B
:10218000D32000F02CF803469BB2184680BD80B5E2
:1021900000AF292000F009F800BF80BD80B500AF76
:1021A000282000F002F800BF80BD80B582B000AFEB
:1021B0000346FB71FB79184600F08EF900BF083723
:1021C000BD4680BD80B582B000AF0346FB80FB8872
:1021D000184600F05FF900BF0837BD4680BD80B5E6
:1021E00082B000AF03460A46FB8013467B717A79C2
:1021F000FB881146184600F091F903461846083747
:10220000BD4680BD80B400AFF0231846BD465DF8E2
:10221000047B704780B400AF4FF4A0731846BD46EE
:102220005DF8047B7047000080B500AF194803F0EB
:1022300065FF0346002B2BD1164B174A1A60154B2E
:102240001822DA61134B00229A60124B00225A6165
:10225000104B00221A610F4B00229A620D4B07228D
:10226000DA620C4B0022DA600A4B00221A62094B38
:102270004FF400729A61074B00225A62054B4FF4EB
:1022800082725A60034800F053F8024803F07FFA64
:1022900000BF80BD300400200050014080B584B0F4
:1022A00000AF0346FB710023FB73FB799AB2094B25
:1022B0001B6807F10801084803F05EFC0346FB7346
:1022C000FB7B002B01D000F027F8BB6818461037C5
:1022D000BD4680BD580000203004002080B584B089
:1022E00000AF0346FB800023FB73094B1B68B91D3D
:1022F0000122084803F0FCFA0346FB73FB7B002B2A
:1023000001D000F009F800BF1037BD4680BD00BF06
:10231000580000203004002080B500AF034803F0CF
:10232000BFFAFFF781FF00BF80BD00BF300400206F
:1023300080B58AB000AF786000233B61174B5B6CBF
:10234000164A43F480135364144B5B6C03F48013FC
:102350003B613B690023FB60104B1B6B0F4A43F052
:10236000200313630D4B1B6B03F02003FB60FB6822
:102370004FF460737B610223BB610223FB61012385
:102380003B6205237B6207F114031946044801F000
:1023900077FB00BF2837BD4680BD00BF0038024034
:1023A0000014024080B588B000AF364B1B78002B7C
:1023B00064D1344B01221A700023BB60324B1B6B7B
:1023C000314A43F0080313632F4B1B6B03F00803E0
:1023D000BB60BB684FF40053FB6001233B610023EB
:1023E0007B610223BB6107F10C031946274801F00A
:1023F00047FB00237B60244B1B6B234A43F00803FD
:102400001363214B1B6B03F008037B607B684FF465
:102410008053FB6001233B6100237B610223BB618E
:1024200007F10C031946194801F02AFB00233B6011
:10243000154B1B6B144A43F004031363124B1B6BC5
:1024400003F004033B603B680423FB6001233B6112
:1024500000237B610223BB6107F10C0319460C4882
:1024600001F00EFB00220421094801F0C1FD012208
:102470000421074801F0BCFDFFF7D6FE00BF20375E
:10248000BD4680BD8804002000380240000C024098
:102490000008024080B582B000AF0346FB800122F5
:1024A0004FF400510A4801F0A3FD0022042109481D
:1024B00001F09EFDFB881846FFF710FF0122042162
:1024C000044801F095FD00BF0837BD4680BD00BF40
:1024D000000C02400008024080B582B000AF034605
:1024E000FB7100224FF400510A4801F081FD0022E7
:1024F0000421094801F07CFDFB799BB21846FFF7E7
:10250000EDFE01220421044801F072FD00BF0837EE
:10251000BD4680BD000C02400008024080B584B07A
:1025200000AF03460A46FB8013467B710023FB6025
:1025300000220421104801F05BFD00224FF40051FD
:102540000E4801F055FDFB881846FFF7C7FE7B7962
:102550001846FFF7A3FEF86001224FF40051074828
:1025600001F046FD01220421034801F041FDFB6812
:1025700018461037BD4680BD00080240000C0240DE
:1025800080B582B000AF7860786800F0F9FC00BFD9
:102590000837BD4680BD000080B500AF2D4B2E4AE8
:1025A0001A602C4B09225A612A4B01229A61294B4D
:1025B0001D22DA61274B03221A62264B40F20D12CC
:1025C0005A62244B40F243129A62224B40F2171295
:1025D000DA62204B40F247121A631E4B002283F846
:1025E00036201C4B002283F834201A4B002283F83B
:1025F00035201A4B08221A60184BC0221A61174B5B
:1026000004229A61154B4FF400325A62134802F0CB
:102610006DFE104B00225A600E4B00229A600D4B4B
:102620000022DA600B4B00221A6100F05FF90948C2
:1026300001F0B8FE0A4B0B4A1A60094B1B681B6875
:10264000984700F061FA084800F0B4F800231846F3
:1026500080BD00BF8C04002000680140740500208C
:10266000C0050020200000205C00002080B500AFE5
:10267000034B1B689B6A98470346184680BD00BF02
:10268000C005002080B500AF034B1B68DB6A98478C
:102690000346184680BD00BFC005002080B590B03D
:1026A00000AF03463960FB800023FB60FFF7DEFFCD
:1026B00003463B6100237B61FFF7E4FF0346BB61F8
:1026C0000023FB613B683B63FF233B6200237B628B
:1026D000002387F83C30002387F83D30002387F83B
:1026E0003E304FF4C063BB620723FB62FFF7BEFFBF
:1026F00003467B63FFF7C6FF0346BB63FA8807F117
:102700000C031946144801F01DFFFA8813491346BB
:102710005B0013449B000B4404334FF0FF321A60FC
:10272000FA880E4913465B0013449B000B440833A0
:102730000B4A1A60FA88094913465B0013449B0050
:102740000B444FF07F421A60034801F039FF00BF8D
:102750004037BD4680BD00BF8C040020A805002086
:102760005C00002080B483B000AF7860044A7B68CE
:10277000136000BF0C37BD465DF8047B704700BF97
:10278000A405002080B483B000AF7860074B1A68BE
:10279000074913465B0013449B000B447A681A6098
:1027A00000BF0C37BD465DF8047B7047A4050020D0
:1027B000A805002080B483B000AF7860084B1A6889
:1027C000084913465B0013449B000B4408337A68A6
:1027D0001A6000BF0C37BD465DF8047B704700BF30
:1027E000A4050020A8050020F0B585B002AF7860F0
:1027F0000F4B1C680E4B1B680E4A342101FB03F380
:1028000013445C331B681E46FFF730FF0546FFF795
:1028100039FF02467B6801930023009313462A4642
:102820003146204600F038F900BF0C37BD46F0BDF8
:10283000A40500208C0400202DE9F04186B002AFF1
:102840000446084611461A462346FB800346BB80D1
:102850000B467B8013463B800023FB60204B1A68AD
:10286000204913465B0013449B000B441B68184629
:10287000FFF788FF1A4B1B681B4A342101FB03F347
:1028800013445C331C68FFF7F1FE0246BB8803FB70
:1028900002F2FB8813449B002344FB60104B1C682E
:1028A000FD687E88B7F80080FFF7E0FE02467B886F
:1028B000D11A0B4B1A680B4813465B0013449B005C
:1028C00003441B6801930091434632462946204643
:1028D00000F0E2F800BF1037BD46BDE8F08100BF50
:1028E000A4050020A80500208C04002080B58EB02F
:1028F00000AF00233B62614B5B6C604A43F0806336
:1029000053645E4B5B6C03F080633B623B6A002365
:10291000FB615A4B1B6B594A43F400031363574B3B
:102920001B6B03F40003FB61FB690023BB61534B8A
:102930001B6B524A43F001031363504B1B6B03F0B4
:102940000103BB61BB6900237B614C4B1B6B4B4A92
:1029500043F002031363494B1B6B03F002037B61DB
:102960007B6900233B61454B1B6B444A43F00403E6
:102970001363424B1B6B03F004033B613B69002371
:10298000FB603E4B1B6B3D4A43F0080313633B4B1C
:102990001B6B03F00803FB60FB680023BB60374B35
:1029A0001B6B364A43F020031363344B1B6B03F05D
:1029B0002003BB60BB6800237B60304B1B6B2F4A3E
:1029C00043F0400313632D4B1B6B03F040037B600C
:1029D0007B6841F658037B620223BB620023FB62E3
:1029E00002233B630E237B6307F12403194624482B
:1029F00001F046F84FF470637B6207F12403194637
:102A0000204801F03DF84FF498637B6207F12403FE
:102A100019461D4801F034F848237B6207F124036E
:102A200019461A4801F02CF84FF480637B6207F1D5
:102A300024031946164801F023F84FF40C637B6217
:102A400007F124031946134801F01AF803237B62A7
:102A500009237B6307F1240319460A4801F010F8A3
:102A60004FF4A0537B6207F124031946094801F093
:102A700007F800BF3837BD4680BD00BF00380240B0
:102A8000000002400004024000080240000C024026
:102A9000001402400018024080B586B002AFF86012
:102AA000B9607A603B60164B4FF440325A60144B69
:102AB00000229A60124ABB69D360114B114A1A6016
:102AC0000F4800F051FD0346002B15D1F9680C4862
:102AD00000F0A8FE0346002B0ED1BA683B680093B5
:102AE0007B68F969064800F088FD0346002B03D196
:102AF0000A21034800F0ACFD00BF1037BD4680BD81
:102B00003405002000B0024080B500AF294B2A4AAE
:102B10001A602A4B02221A60284B07225A60274B60
:102B200004229A60254B0722DA60244B02221A61A4
:102B3000224B02225A61214B02229A611D4B012233
:102B40005A601C4B00229A601A4B0422DA60194B1F
:102B500010221A61174B40225A61164B4FF4C07273
:102B60009A61144B0022DA61124B4FF400621A6230
:102B7000104B00225A620F4B4FF400529A62002110
:102B80000C4800F07FF80D490A4802F06FFD03463B
:102B9000002B03D00A4B01221A7002E0084B0022DE
:102BA0001A7040F26A5000F00DF8054B1B78184679
:102BB00080BD00BFC4050020400100A0F805002032
:102BC0006C00002080B584B000AF78600023FB600B
:102BD0002A4B01221A60294B08225A60274B0122F6
:102BE0009A60264B0022DA604FF6FF722349244890
:102BF00002F070FD012000F0C3F9204B02221A60A0
:102C00001E4B08225A601D4B01229A601B4B00226A
:102C1000DA604FF6FF721949194802F05BFD174B55
:102C200003221A60154B08225A60144B04229A6042
:102C3000124B0022DA604FF6FF721049104802F082
:102C400049FD4FF40C73FB600C4B04221A600B4BD4
:102C500008225A60094B01229A60FB68074AD36038
:102C60004FF6FF720549064802F034FD79680448C2
:102C700002F065FD00BF1037BD4680BD1406002080
:102C8000C405002080B590B000AF786039607B68E3
:102C9000002B00F0EC800023BB62774B9B6B764AE5
:102CA00043F001039363744B9B6B03F00103BB621E
:102CB000BB6A00237B62704B1B6B6F4A43F480033B
:102CC00013636D4B1B6B03F480037B627B6A0023F1
:102CD0003B62694B1B6B684A43F002031363664B0C
:102CE0001B6B03F002033B623B6A0023FB61624BF8
:102CF0001B6B614A43F0040313635F4B1B6B03F0D0
:102D00000403FB61FB690023BB615B4B1B6B5A4AED
:102D100043F008031363584B1B6B03F00803BB61BC
:102D2000BB6900237B61544B1B6B534A43F0100378
:102D30001363514B1B6B03F010037B617B69002312
:102D40003B614D4B1B6B4C4A43F0200313634A4BD2
:102D50001B6B03F020033B613B690023FB60464B88
:102D60001B6B454A43F040031363434B1B6B03F05B
:102D70004003FB60FB6802233B630223BB63002329
:102D80007B630C23FB636023FB6207F12C03194672
:102D90003A4800F075FE0123FB6207F12C03194647
:102DA000374800F06DFE4CF20373FB6207F12C0311
:102DB0001946344800F064FE4FF68373FB6207F156
:102DC0002C031946304800F05BFE4FF63F03FB62D0
:102DD00007F12C0319462D4800F052FE48F2331338
:102DE000FB6207F12C031946294800F049FE294BE4
:102DF00000225A60274B80229A60264B4FF40072C3
:102E0000DA60244B4FF480621A61224B4FF48052F7
:102E10005A61204B4FF480429A611E4B0022DA61C6
:102E20001C4B4FF400321A621A4B00225A62194BA3
:102E300003229A62174B0022DA62164B00221A63B1
:102E4000144B154A1A607B68124A1A63114A7B6850
:102E50009363104800F078FA0E4800F0C7F900229A
:102E60000F21382000F08BF9382000F0A4F900BFC2
:102E70004037BD4680BD00BF00380240000402401C
:102E800000080240000C0240001002400014024002
:102E900000180240240600201064024080B500AFF4
:102EA0000E4B1B680D4A43F4007313600B4B1B68F9
:102EB0000A4A43F480631360084B1B68074A43F4D3
:102EC00080731360032000F04FF9002000F008F831
:102ED000FEF7F8FB0023184680BD00BF003C02400F
:102EE00080B582B000AF7860124B1A68124B1B7825
:102EF00019464FF47A73B3FBF1F3B2FBF3F31846C0
:102F000000F067F90346002B01D001230EE07B6837
:102F10000F2B0AD8002279684FF0FF3000F02FF90C
:102F2000064A7B681360002300E001231846083737
:102F3000BD4680BD1C0000207400002070000020F1
:102F400080B400AF064B1B781A46064B1B6813442F
:102F5000044A136000BFBD465DF8047B704700BFA4
:102F6000740000208406002080B400AF034B1B686F
:102F70001846BD465DF8047B704700BF84060020FC
:102F800080B584B000AF7860FFF7EEFFB8607B6873
:102F9000FB60FB68B3F1FF3F05D00A4B1B781A4674
:102FA000FB681344FB6000BFFFF7DEFF0246BB680F
:102FB000D31AFA689A42F7D800BF00BF1037BD464F
:102FC00080BD00BF7400002080B485B000AF786081
:102FD0007B6803F00703FB600C4BDB68BB60BA68DF
:102FE0004FF6FF031340BB60FB681A02BB68134334
:102FF00043F0BF6343F40033BB60044ABB68D36053
:1030000000BF1437BD465DF8047B704700ED00E05B
:1030100080B400AF044BDB681B0A03F007031846BB
:10302000BD465DF8047B704700ED00E080B483B0DE
:1030300000AF0346FB7197F90730002B0BDBFB79E0
:1030400003F01F02074997F907305B09012000FAD6
:1030500002F241F8232000BF0C37BD465DF8047B27
:10306000704700BF00E100E080B483B000AF0346CA
:103070003960FB7197F90730002B0ADB3B68DAB245
:103080000C4997F907301201D2B20B4483F80023A0
:103090000AE03B68DAB20849FB7903F00F03043B0E
:1030A0001201D2B20B441A7600BF0C37BD465DF850
:1030B000047B704700E100E000ED00E080B489B0DF
:1030C00000AFF860B9607A60FB6803F00703FB614A
:1030D000FB69C3F10703042B28BF0423BB61FB6911
:1030E0000433062B02D9FB69033B00E000237B611C
:1030F0004FF0FF32BB6902FA03F3DA43BB681A40B0
:103100007B699A404FF0FF317B6901FA03F3D943A1
:103110007B680B40134318462437BD465DF8047B9B
:103120007047000080B582B000AF78607B68013BDB
:10313000B3F1807F01D301230FE00A4A7B68013B92
:1031400053600F214FF0FF30FFF78EFF054B002239
:103150009A60044B07221A60002318460837BD46C0
:1031600080BD00BF10E000E080B582B000AF7860A5
:103170007868FFF729FF00BF0837BD4680BD80B5DE
:1031800086B000AF0346B9607A60FB7300237B61B1
:10319000FFF73EFF78617A68B9687869FFF78EFFBC
:1031A000024697F90F3011461846FFF75DFF00BF42
:1031B0001837BD4680BD80B582B000AF0346FB71B5
:1031C00097F907301846FFF731FF00BF0837BD46B3
:1031D00080BD80B582B000AF78607868FFF7A2FF4D
:1031E000034618460837BD4680BD000080B586B04E
:1031F00000AF786000237B61FFF7B6FE38617B6823
:10320000002B01D1012399E07B68022283F835204D
:103210007B68002283F834207B681B681A687B680F
:103220001B6822F001021A600FE0FFF79DFE0246C4
:103230003B69D31A052B08D97B6820225A657B6825
:10324000032283F83520032378E07B681B681B6822
:1032500003F00103002BE8D17B681B681B687B61CE
:103260007A69384B13407B617B685A687B689B683E
:103270001A437B68DB681A437B681B691A437B68C7
:103280005B691A437B689B691A437B68DB691A4355
:103290007B681B6A13437A6913437B617B685B6AB3
:1032A000042B07D17B68DA6A7B681B6B13437A694E
:1032B00013437B617B681B687A691A607B681B68B3
:1032C0005B697B617B6923F007037B617B685B6AD9
:1032D0007A6913437B617B685B6A042B17D17B6837
:1032E0009B6A7A6913437B617B68DB6A002B0ED093
:1032F000786800F0BDF80346002B08D07B684022B8
:103300005A657B68012283F83520012316E07B682B
:103310001B687A695A61786800F074F80346FB60AC
:103320007B68DB6D3F229A40FB689A607B680022D5
:103330005A657B68012283F8352000231846183728
:10334000BD4680BD3F8010F080B584B000AF78608E
:103350007B68002B01D1012350E07B6893F8353066
:10336000DBB2022B01D1022348E07B681B681A689C
:103370007B681B6822F001021A607B681B680022D0
:103380001A607B681B6800225A607B681B680022F9
:103390009A607B681B680022DA607B681B680022E9
:1033A0001A617B681B6821225A61786800F02AF84C
:1033B0000346FB607B680022DA637B6800221A64A4
:1033C0007B6800225A647B6800229A647B68002232
:1033D000DA647B6800221A657B68DB6D3F229A40C5
:1033E000FB689A607B6800225A657B68002283F83C
:1033F00035207B68002283F83420002318461037DC
:10340000BD4680BD80B485B000AF78607B681B6826
:10341000DBB2103B144AA2FB03231B09FB60134AD7
:10342000FB6813441B781A467B68DA65FB68032B3C
:1034300009D97B681B6823F47F7323F003031A1DEB
:103440007B689A6507E07B681B6823F47F7323F031
:1034500003037A6893657B689B6D18461437BD46F5
:103460005DF8047B704700BFABAAAAAA98B5000814
:1034700080B485B000AF78600023FB737B689B6AE3
:10348000BB607B689B69002B1FD1BB68032B56D8A0
:1034900001A252F823F000BFA9340008BB34000891
:1034A000A93400083F3500087B68DB6A03F08073AD
:1034B000002B46D00123FB7343E07B68DB6AB3F14A
:1034C000C07F40D10123FB733DE07B689B69B3F56E
:1034D000005F21D1BB68032B37D801A252F823F03B
:1034E000F1340008F7340008F13400080935000809
:1034F0000123FB7330E07B68DB6A03F08073002BF1
:1035000025D00123FB7322E07B68DB6AB3F1C07F27
:103510001FD10123FB731CE0BB68022B03D9BB68DE
:10352000032B03D018E00123FB7315E07B68DB6AF3
:1035300003F08073002B0ED00123FB730BE000BF60
:103540000AE000BF08E000BF06E000BF04E000BFE3
:1035500002E000BF00E000BFFB7B18461437BD4609
:103560005DF8047B704700BF80B582B000AF786023
:103570007B68002B01D101233BE07B6893F8393055
:10358000DBB2002B06D17B68002283F838207868F4
:10359000FEF7C0F87B68022283F839207B681B683D
:1035A0001B6823F440317B685A687B681B680A43B8
:1035B0001A607B681B685B6B23F007017B689A6865
:1035C0007B681B680A435A637B681B681B6C23F487
:1035D0007F5323F03F037A68D1687A6812680B43FF
:1035E00013647B680022DA637B68012283F8392048
:1035F000002318460837BD4680BD80B586B002AFAF
:10360000F860B9607A603B60FB6893F83830012B52
:1036100001D1022318E0FB68012283F83820FB68FF
:10362000022283F83920BB6900933B687A68B96845
:10363000F86800F089F9FB681B681A68FB681B686A
:1036400042F001021A60002318461037BD4680BDC3
:1036500080B586B000AF786039600023FB607B687E
:103660001B681B6803F00103002B56D0FFF77CFC9E
:1036700078614BE07B681B685B68FB60FB6803F06C
:103680002103002B23D0FB6803F02003002B05D07F
:103690007B68DB6B43F002027B68DA63FB6803F054
:1036A0000103002B05D07B68DB6B43F001027B68D4
:1036B000DA637B681B6821229A607B68042283F8A6
:1036C00039207B68002283F838200123A5E03B687D
:1036D000B3F1FF3F1AD0FFF747FC02467B69D31ACC
:1036E0003A689A4202D33B68002B0FD17B68DB6BB0
:1036F00043F020027B68DA637B68032283F8392079
:103700007B68002283F83820032386E07B681B68EF
:103710005B6803F00203002BACD07B681B68DB699D
:1037200003F020033B617B681B685B6A03F02003A6
:103730003A6913433B613B69002B61D0FFF714FCEE
:10374000786156E07B681B685B68FB60FB6803F090
:103750002903002B2ED0FB6803F00803002B05D0B3
:103760007B68DB6B43F004027B68DA63FB6803F081
:103770002003002B05D07B68DB6B43F002027B68E3
:10378000DA63FB6803F00103002B05D07B68DB6B79
:1037900043F001027B68DA637B681B6829229A6028
:1037A0007B68042283F839207B68002283F8382064
:1037B000012332E03B68B3F1FF3F1AD0FFF7D4FB9F
:1037C00002467B69D31A3A689A4202D33B68002BBF
:1037D0000FD17B68DB6B43F020027B68DA637B6888
:1037E000032283F839207B68002283F838200323E2
:1037F00013E07B681B685B6803F01003002BA1D00B
:103800007B681B6812229A607B68012283F839204A
:103810007B68002283F83820002318461837BD46FD
:1038200080BD000080B487B000AF786039607B68ED
:103830005B68B3F5403F7B6893F83830012B01D1CA
:10384000022379E07B68012283F838207B6802221A
:1038500083F839203B681B0118337A6813443B61B5
:103860003B695A683B699B681B0413437B61354B7A
:10387000FB603B695B680A2B03D03B695B68092BE3
:1038800007D13B69DB6803F07F437A6913437B61AF
:1038900005E03B69DB681B067A6913437B613B6883
:1038A000002B20D17B681B685A6AFB68DB4302EA65
:1038B00003017B681B687A690A435A627B681B684C
:1038C0003A6912689A613B695B680A2B03D03B69CD
:1038D0005B68092B27D13B69DA687B681B6822F09B
:1038E0007F429A621FE07B681B68DA69FB68DB43F2
:1038F00002EA03017B681B687A690A43DA617B6824
:103900001B683A6912681A613B695B680A2B03D02D
:103910003B695B68092B06D13B69DA687B681B68E9
:1039200022F07F421A627B68012283F839207B688B
:10393000002283F83820002318461C37BD465DF866
:10394000047B70470F0003FF80B48BB000AFF860BA
:10395000B9607A603B60FB681B685B6C03F04041B8
:103960003B681A043B6B1A43FB681B680A435A64A2
:10397000FB681B687A68DA63FB685B68B3F5403FF5
:1039800074D1BB6803F07F433B62BB6803F47F03E1
:10399000FB61BB6803F47F43BB61BB68DBB27B6147
:1039A000FB689B68002B08D1BA69FB691A433B6A24
:1039B00013437A6913437B6253E0FB689B68012BD6
:1039C00006D1BA69FB6913437A6913437B6248E005
:1039D000FB689B68022B11D1FB69DB0CFB61BB69A7
:1039E0009B0ABB617B69DB087B61BB695A01FB6990
:1039F000DB0213437A6913437B6232E0FB689B6806
:103A0000032B17D13B6ADB0F3B62FB69DB0CFB61CD
:103A1000BB69DB0ABB617B69DB087B61BB695A015F
:103A2000FB699B021A433B6ADB0313437A69134326
:103A30007B6216E03B6A1B0F3B62FB691B0DFB615F
:103A4000BB691B0BBB617B691B097B61BB691A01ED
:103A5000FB691B021A433B6A1B0313437A69134336
:103A60007B62FB681B687A6A9A6303E0FB681B68E9
:103A7000BA68DA6000BF2C37BD465DF8047B70473A
:103A800080B489B000AF7860396000237B61002387
:103A90003B610023BB610023FB6177E10122FB69ED
:103AA00002FA03F37B613B681B687A6913403B6150
:103AB0003A697B699A4240F066813B685B6803F033
:103AC0000303012B05D03B685B6803F00303022B63
:103AD00030D17B689B68BB61FB695B00032202FA03
:103AE00003F3DB43BA691340BB613B68DA68FB69E7
:103AF0005B0002FA03F3BA691343BB617B68BA69DE
:103B00009A607B685B68BB610122FB6902FA03F380
:103B1000DB43BA691340BB613B685B681B0903F078
:103B20000102FB6902FA03F3BA691343BB617B68C4
:103B3000BA695A603B685B6803F00303032B17D034
:103B40007B68DB68BB61FB695B00032202FA03F35D
:103B5000DB43BA691340BB613B689A68FB695B0051
:103B600002FA03F3BA691343BB617B68BA69DA608E
:103B70003B685B6803F00303022B23D1FB69DA087F
:103B80007B68083253F82230BB61FB6903F00703FE
:103B90009B000F2202FA03F3DB43BA691340BB61B7
:103BA0003B681A69FB6903F007039B0002FA03F301
:103BB000BA691343BB61FB69DA087B680832B969EB
:103BC00043F822107B681B68BB61FB695B00032222
:103BD00002FA03F3DB43BA691340BB613B685B68DD
:103BE00003F00302FB695B0002FA03F3BA691343B3
:103BF000BB617B68BA691A603B685B6803F4403359
:103C0000002B00F0C0800023FB60664B5B6C654AB4
:103C100043F480435364634B5B6C03F48043FB6069
:103C2000FB68614AFB699B08023352F82330BB6191
:103C3000FB6903F003039B000F2202FA03F3DB434B
:103C4000BA691340BB617B68584A934237D07B689E
:103C5000574A934231D07B68564A93422BD07B68B7
:103C6000554A934225D07B68544A93421FD07B68C3
:103C7000534A934219D07B68524A934213D07B68CF
:103C8000514A93420DD07B68504A934207D07B68DB
:103C90004F4A934201D1092312E00A2310E008237E
:103CA0000EE007230CE006230AE0052308E00423C6
:103CB00006E0032304E0022302E0012300E00023E6
:103CC000FA6902F0030292009340BA691343BB61A0
:103CD0003549FB699B080233BA6941F823203D4B03
:103CE0009B68BB613B69DB43BA691340BB613B68BE
:103CF0005B6803F48013002B03D0BA693B6913435C
:103D0000BB61344ABB699360324BDB68BB613B6982
:103D1000DB43BA691340BB613B685B6803F4001383
:103D2000002B03D0BA693B691343BB61294ABB69C5
:103D3000D360284B5B68BB613B69DB43BA691340C6
:103D4000BB613B685B6803F40033002B03D0BA69A6
:103D50003B691343BB611F4ABB6953601D4B1B6822
:103D6000BB613B69DB43BA691340BB613B685B687D
:103D700003F48033002B03D0BA693B691343BB6162
:103D8000144ABB691360FB690133FB61FB690F2BAC
:103D90007FF684AE00BF00BF2437BD465DF8047BCC
:103DA000704700BF00380240003801400000024068
:103DB0000004024000080240000C024000100240D3
:103DC0000014024000180240001C02400020024083
:103DD00000240240003C014080B487B000AF78600E
:103DE000396000233B610023FB600023BB6000239C
:103DF0007B61D9E001227B6902FA03F33B613A68F7
:103E00003B691340FB60FA683B699A4240F0C98005
:103E10006B4A7B699B08023352F82330BB607B6995
:103E200003F003039B000F2202FA03F3BA68134066
:103E3000BB607B68634A934237D07B68624A934297
:103E400031D07B68614A93422BD07B68604A9342B1
:103E500025D07B685F4A93421FD07B685E4A9342BD
:103E600019D07B685D4A934213D07B685C4A9342C9
:103E70000DD07B685B4A934207D07B685A4A9342D5
:103E800001D1092312E00A2310E008230EE00723E2
:103E90000CE006230AE0052308E0042306E00323E0
:103EA00004E0022302E0012300E000237A6902F02B
:103EB000030292009340BA689A4232D14B4B1A687F
:103EC000FB68DB43494913400B60484B5A68FB6869
:103ED000DB43464913404B60444BDA68FB68DB43E5
:103EE00042491340CB60414B9A68FB68DB433F4932
:103EF00013408B607B6903F003039B000F2202FADF
:103F000003F3BB602E4A7B699B08023352F82310EF
:103F1000BB68DA432A487B699B080A40023340F8B1
:103F200023207B681A687B695B00032101FA03F395
:103F3000DB431A407B681A607B69DA087B680832C9
:103F400053F822107B6903F007039B000F2202FA4B
:103F500003F3DB437A69D20819407B68083243F8DF
:103F600022107B68DA687B695B00032101FA03F3A6
:103F7000DB431A407B68DA607B685A6801217B6901
:103F800001FA03F3DB431A407B685A607B689A6846
:103F90007B695B00032101FA03F3DB431A407B6872
:103FA0009A607B6901337B617B690F2B7FF622AFBF
:103FB00000BF00BF1C37BD465DF8047B704700BFE3
:103FC00000380140000002400004024000080240A6
:103FD000000C024000100240001402400018024091
:103FE000001C02400020024000240240003C01402E
:103FF00080B483B000AF78600B467B8013467B7043
:104000007B78002B03D07A887B689A6103E07B88F9
:104010001A047B689A6100BF0C37BD465DF8047BCB
:104020007047000080B584B000AF78607B68002BDB
:1040300001D101232BE17B6893F83D30DBB2002BEB
:1040400006D17B68002283F83C207868FDF784FB6A
:104050007B68242283F83D207B681B681A687B6894
:104060001B6822F001021A607B681B681A687B6873
:104070001B6842F400421A607B681B681A687B6800
:104080001B6822F400421A6001F01CF9F8607B689A
:104090005B68814A934207D8FB68804A934294BF89
:1040A00001230023DBB206E0FB687D4A934294BF04
:1040B00001230023DBB2002B01D00123E7E0FB68E2
:1040C000784AA2FB03239B0CBB607B681B685B6880
:1040D00023F03F017B681B68BA680A435A607B681B
:1040E0001B681B6A23F03F017B685B686A4A934246
:1040F00002D8BB68013309E0BB684FF4967202FB3B
:1041000003F3694AA2FB03239B0901337A6812680F
:104110000B4313627B681B68DB6923F44F4222F078
:10412000FF027B685B685C498B4219D8FB68591EAB
:104130007B685B685B00B1FBF3F3591C40F6FC73D2
:104140000B40002B0AD0FB68591E7B685B685B0044
:10415000B1FBF3F30133C3F30B0351E004234FE04E
:104160007B689B68002B11D1FB68581E7B685968DF
:104170000B465B000B44B0FBF3F30133C3F30B03BB
:10418000002B0CBF01230023DBB212E0FB68581E9A
:104190007B6859680B469B000B4499000B44B0FBAD
:1041A000F3F30133C3F30B03002B0CBF01230023F4
:1041B000DBB2002B01D0012322E07B689B68002B3F
:1041C0000ED1FB68581E7B6859680B465B000B4498
:1041D000B0FBF3F30133C3F30B0343F400430FE0ED
:1041E000FB68581E7B6859680B469B000B4499007E
:1041F0000B44B0FBF3F30133C3F30B0343F440432D
:10420000796809681343CB617B681B681B6823F0DE
:10421000C0017B68DA697B681B6A1A437B681B688C
:104220000A431A607B681B689B6823F4034323F0EE
:10423000FF037A6811697A68D26811437A68126854
:104240000B4393607B681B68DB6823F0FF017B688E
:104250005A697B689B691A437B681B680A43DA606A
:104260007B681B681A687B681B6842F001021A6051
:104270007B6800221A647B68202283F83D207B68DB
:1042800000221A637B68002283F83E200023184630
:104290001037BD4680BD00BFA08601007F841E0090
:1042A000FF083D0083DE1B43D34D621080B483B012
:1042B00000AF786039607B6893F83D30DBB2202B2B
:1042C00029D17B68242283F83D207B681B681A680B
:1042D0007B681B6822F001021A607B681B685A6ABF
:1042E0007B681B6822F010025A627B681B68596A5F
:1042F0007B681B683A680A435A627B681B681A68C5
:104300007B681B6842F001021A607B68202283F8F8
:104310003D20002300E0022318460C37BD465DF81F
:10432000047B704780B485B000AF786039600023AB
:10433000FB817B6893F83D30DBB2202B2AD17B6870
:10434000242283F83D207B681B681A687B681B6801
:1043500022F001021A607B681B685B6AFB81FB89A3
:1043600023F00F03FB813B689AB2FB891343FB8167
:104370007B681B68FA895A627B681B681A687B68CD
:104380001B6842F001021A607B68202283F83D20FE
:10439000002300E0022318461437BD465DF8047B75
:1043A0007047000080B584B000AF78607B68002B58
:1043B00001D10123BFE07B6893F8A130DBB2002B71
:1043C00006D17B68002283F8A0207868FDF72EFADA
:1043D0007B68022283F8A1207B681B689A697B684E
:1043E0001B6822F070429A617B681B6899697B6840
:1043F0005A687B689B681A437B68DB681A437B6852
:104400001B691A437B681B680A439A617B681B68B7
:1044100099687B681A684A4B0B4093607B685B69BC
:104420001B04FB607B681B6899687B689A69FB6862
:104430001A437B681B680A439A607B681B68D968CB
:104440007B681A683E4B0B40D3607B68DB691B04BA
:10445000FB607B681B68D9687B681A6AFB681A4333
:104460007B681B680A43DA607B681B6819697B6894
:104470001A68334B0B4013617B685B6A1B04FB605B
:104480007B681B6819697B689A6AFB681A437B68BA
:104490001B680A431A617B681B6859697B681A6844
:1044A000274B0B4053617B68DB6A1B04FB607B6816
:1044B0001B6859697B681A6BFB681A437B681B6829
:1044C0000A435A617B6893F835301B02FB607B68B6
:1044D00093F836301B04BB607B681B68DA6A7B6824
:1044E0001B6802F07F42DA627B681B68D96ABA688F
:1044F000FB6813437A6892F834201A437B681B6880
:104500000A43DA627B681B685A6B7B681B6842F05F
:1045100006025A637B681B689A697B681B6842F0D5
:1045200001029A617B680022C3F8A4207B68012203
:1045300083F8A120002318461037BD4680BD00BF78
:1045400000F800F0B0B584B000AFF860B9607A60F0
:10455000FB6893F8A030012B01D102232CE0FB680B
:10456000012283F8A020FB68022283F8A120FA68C8
:104570007B68342101FB03F3134403F13802BB6869
:1045800014461D460FCD0FC40FCD0FC40FCD0FC461
:104590002B6823607A68B968F86800F03BF8FB681C
:1045A0001B6801225A62FB68012283F8A120FB6884
:1045B000002283F8A020002318461037BD46B0BD66
:1045C00080B483B000AF78607B6893F8A030012B93
:1045D00001D1022316E07B68012283F8A0207B68CA
:1045E000022283F8A1200A4B9B69094A43F48033D5
:1045F00093617B68012283F8A1207B68002283F805
:10460000A020002318460C37BD465DF8047B704798
:104610000068014080B489B000AFF860B9607A608A
:10462000BB685A68FB681B68DB681B0CC3F30B0391
:1046300013441B04FB61FB681B681A467B68DB01A3
:10464000134484335B68FA68126811467A68D201B1
:104650000A44843203F470435360BB681A68FB68F1
:104660001B68DB681B0CC3F30B0313445A1CFB6869
:104670001B6819467B68DB010B4484331946FB69D0
:1046800013434B60BB68DA68FB681B68DB68C3F3E5
:104690000A0313441B04FB61FB681B681A467B6812
:1046A000DB01134484339B68FA68126811467A6808
:1046B000D2010A44843203F470439360BB689A6861
:1046C000FB681B68DB68C3F30A0313445A1CFB68CE
:1046D0001B6819467B68DB010B4484331946FB6970
:1046E00013438B60FB681B681A467B68DB0113442D
:1046F00084331B69FA68126811467A68D2010A4449
:10470000843223F007031361FB681B681A467B6839
:10471000DB01134484331A46BB681B691361BB6811
:1047200093F831301B02FB61BB6893F832301B04F5
:10473000BB61BB689B691B067B61FB681B681A46F3
:104740007B68DB01134484339B69FB681B681A4652
:104750007B68DB01134484331A4600239361BB68F2
:1047600093F830301A46FB691A43BB691A43FB6859
:104770001B6819467B68DB010B44843319467B694F
:1047800013438B61FB681B681A467B68DB0113448B
:1047900084335B69FA68126811467A68D2010A4468
:1047A000843223F0FF035361FB681B681A467B6861
:1047B000DB01134484331A46BB685B695361FB68B1
:1047C0001B681A467B68DB0113448433DB69FA6893
:1047D000126811467A68D2010A44843223F4E063F5
:1047E00023F00703D361BB68DA69BB681B6AF96809
:1047F000096808467968C901014484311343CB61D3
:10480000FB681B681A467B68DB01134484339B6A90
:10481000FB681B681A467B68DB01134484331A4625
:1048200000239362FB681B681A467B68DB01134414
:1048300084331A46BB685B6A9362BB681B69002BB2
:1048400002D10423FB611BE0BB681B69012B02D171
:104850000323FB6114E0BB681B69042B0BD0BB680E
:104860001B69022B07D0BB681B69032B03D0BB68F5
:104870001B69072B02D10223FB6101E00123FB61CD
:10488000FB681B681A467B68DB0113448433DB6AD0
:10489000FA68126811467A68D2010A44843203F039
:1048A000E023D362BB689B6AFA6902FB03F31A0434
:1048B000BB685968BB681B68CB1AF96901FB03F335
:1048C0000333F968096808467968C90101448431ED
:1048D0001343CB62FB681B681A467B68DB011344F9
:1048E00084331B6BFA68126811467A68D2010A4455
:1048F000843223F4FF6323F007031363FB681B6810
:104900001A467B68DB01134484331A46BB68DB6AB2
:104910001363FB681B681A467B68DB01134484330E
:104920001B68FA68126811467A68D2010A44843218
:1049300043F00103136000BF2437BD465DF8047BDC
:104940007047000080B582B000AF00237B60002379
:104950003B60204B1B6C1F4A43F0805313641D4B7C
:104960001B6C03F080533B603B681B4B01221A60B9
:10497000FEF7FAFA786009E0FEF7F6FA02467B687D
:10498000D31AB3F57A7F01D903231FE0134B5B6879
:1049900003F48033B3F5803FEED1114B01221A604E
:1049A000FEF7E2FA786009E0FEF7DEFA02467B687D
:1049B000D31AB3F57A7F01D9032307E0074B5B686D
:1049C00003F40033B3F5003FEED100231846083757
:1049D000BD4680BD0038024040000E4200700040DD
:1049E00044000E4280B586B000AF78607B68002B33
:1049F00001D1012367E27B681B6803F00103002BF0
:104A000075D0884B9B6803F00C03042B0CD0854BAE
:104A10009B6803F00C03082B12D1824B5B6803F4F4
:104A20008003B3F5800F0BD17E4B1B6803F400337A
:104A3000002B5BD07B685B68002B57D1012342E2DF
:104A40007B685B68B3F5803F06D1764B1B68754A7F
:104A500043F4803313601DE07B685B68B3F5A02FDF
:104A60000CD1704B1B686F4A43F4802313606D4B6D
:104A70001B686C4A43F4803313600BE0694B1B687E
:104A8000684A23F480331360664B1B68654A23F43D
:104A9000802313607B685B68002B13D0FEF764FAF9
:104AA000386108E0FEF760FA02463B69D31A642BCE
:104AB00001D9032307E25B4B1B6803F40033002B8F
:104AC000F0D014E0FEF750FA386108E0FEF74CFA37
:104AD00002463B69D31A642B01D90323F3E1514BFE
:104AE0001B6803F40033002BF0D100E000BF7B68AB
:104AF0001B6803F00203002B63D04A4B9B6803F052
:104B00000C03002B0BD0474B9B6803F00C03082BC6
:104B10001CD1444B5B6803F48003002B16D1414B3E
:104B20001B6803F00203002B05D07B68DB68012BB8
:104B300001D00123C7E13B4B1B6823F0F8027B68DF
:104B40001B69DB00374913430B603AE07B68DB6885
:104B5000002B20D0344B01221A60FEF705FA386191
:104B600008E0FEF701FA02463B69D31A022B01D98D
:104B70000323A8E12B4B1B6803F00203002BF0D0AA
:104B8000284B1B6823F0F8027B681B69DB00254972
:104B900013430B6015E0244B00221A60FEF7E4F982
:104BA000386108E0FEF7E0F902463B69D31A022BB0
:104BB00001D9032387E11B4B1B6803F00203002B81
:104BC000F0D17B681B6803F00803002B36D07B68AC
:104BD0005B69002B16D0154B01221A60FEF7C4F951
:104BE000386108E0FEF7C0F902463B69D31A022B90
:104BF00001D9032367E10B4B5B6F03F00203002B2A
:104C0000F0D01BE0094B00221A60FEF7ADF93861C5
:104C10000EE0FEF7A9F902463B69D31A022B07D929
:104C2000032350E10038024000004742800E474213
:104C3000884B5B6F03F00203002BEAD17B681B6893
:104C400003F00403002B00F097800023FB75814BD9
:104C50001B6C03F08053002B0FD10023BB607D4BF6
:104C60001B6C7C4A43F0805313647A4B1B6C03F03B
:104C70008053BB60BB680123FB75774B1B6803F453
:104C80008073002B18D1744B1B68734A43F48073F4
:104C90001360FEF769F9386108E0FEF765F902462E
:104CA0003B69D31A022B01D903230CE16A4B1B6821
:104CB00003F48073002BF0D07B689B68012B06D136
:104CC000644B1B6F634A43F0010313671CE07B686E
:104CD0009B68052B0CD15F4B1B6F5E4A43F00403AE
:104CE00013675C4B1B6F5B4A43F0010313670BE0D8
:104CF000584B1B6F574A23F001031367554B1B6F2B
:104D0000544A23F0040313677B689B68002B15D07B
:104D1000FEF72AF938610AE0FEF726F902463B69F8
:104D2000D31A41F28832934201D90323CBE0494B95
:104D30001B6F03F00203002BEED014E0FEF714F912
:104D400038610AE0FEF710F902463B69D31A41F2D6
:104D50008832934201D90323B5E03E4B1B6F03F029
:104D60000203002BEED1FB7D012B05D1394B1B6CCF
:104D7000384A23F0805313647B689B69002B00F052
:104D8000A180344B9B6803F00C03082B5CD07B683C
:104D90009B69022B41D1314B00221A60FEF7E4F8E7
:104DA000386108E0FEF7E0F802463B69D31A022BAF
:104DB00001D9032387E0274B1B6803F00073002B06
:104DC000F0D17B68DA697B681B6A1A437B685B6A8F
:104DD0009B011A437B689B6A5B08013B1B041A43D7
:104DE0007B68DB6A1B061B4913434B601B4B01228C
:104DF0001A60FEF7B9F8386108E0FEF7B5F8024628
:104E00003B69D31A022B01D903235CE0114B1B68C9
:104E100003F00073002BF0D054E0104B00221A6016
:104E2000FEF7A2F8386108E0FEF79EF802463B69FB
:104E3000D31A022B01D9032345E0064B1B6803F06C
:104E40000073002BF0D13DE07B689B69012B07D1FB
:104E5000012338E000380240007000406000474203
:104E60001B4B5B68FB607B689B69012B28D0FB6850
:104E700003F480027B68DB699A4221D1FB6803F06E
:104E80003F027B681B6A9A421AD1FA6847F6C073E0
:104E900013407A68526A9201934211D1FB6803F47D
:104EA00040327B689B6A5B08013B1B049A4207D136
:104EB000FB6803F070627B68DB6A1B069A4201D0D4
:104EC000012300E0002318461837BD4680BD00BF0F
:104ED0000038024080B584B000AF786039607B68EC
:104EE000002B01D10123CCE0684B1B6803F00F03BA
:104EF0003A689A420CD9654B3A68D2B21A70634B41
:104F00001B6803F00F033A689A4201D00123B8E00E
:104F10007B681B6803F00203002B20D07B681B68B2
:104F200003F00403002B05D0594B9B68584A43F407
:104F3000E05393607B681B6803F00803002B05D0E7
:104F4000534B9B68524A43F460439360504B9B68B9
:104F500023F0F0027B689B684D4913438B607B68AC
:104F60001B6803F00103002B44D07B685B68012BB6
:104F700007D1474B1B6803F40033002B19D10123E1
:104F80007FE07B685B68022B03D07B685B68032B48
:104F900007D13F4B1B6803F00073002B09D101239D
:104FA0006FE03B4B1B6803F00203002B01D1012390
:104FB00067E0374B9B6823F003027B685B683449EA
:104FC00013438B60FDF7D0FFF8600AE0FDF7CCFFDC
:104FD0000246FB68D31A41F28832934201D9032377
:104FE0004FE02B4B9B6803F00C027B685B689B00D7
:104FF0009A42EBD1254B1B6803F00F033A689A42A3
:105000000CD2224B3A68D2B21A70204B1B6803F0C4
:105010000F033A689A4201D0012332E07B681B6893
:1050200003F00403002B08D0194B9B6823F4E052D3
:105030007B68DB68164913438B607B681B6803F051
:105040000803002B09D0124B9B6823F460427B6855
:105050001B69DB000E4913438B6000F021F8024608
:105060000B4B9B681B0903F00F030A49CB5C22FA28
:1050700003F3094A1360094B1B681846FDF730FF1C
:10508000002318461037BD4680BD00BF003C0240DB
:1050900000380240E88E00081C000020700000204C
:1050A0002DE9B04F94B000AF00237B640023FB6474
:1050B00000233B640023BB64794B9B6803F00C0323
:1050C000082B0DD0082B00F2E180002B02D0042B1E
:1050D00003D0DBE0734BBB64DBE0734BBB64D8E015
:1050E0006F4B5B6803F03F037B646D4B5B6803F4BD
:1050F0008003002B63D06A4B5B689B090022BB6373
:10510000FA63BB6BC3F308033B6300237B63D7E9FC
:105110000C4522462B464FF000004FF0000159018C
:1051200041EAD261500102460B462146511A3961CB
:10513000294663EB01037B614FF000024FF000034F
:10514000D7E904AB59468B01514643EA9163514676
:105150008A015146B2EB0108594663EB01094FF051
:1051600000024FF000034FEAC90343EA58734FEAC5
:10517000C80290469946234618EB0303BB602B46B2
:1051800049EB0303FB604FF000024FF00003D7E947
:10519000024529464B02214643EAD15321464A02A1
:1051A000104619467B6C0022BB62FA62D7E90A23DB
:1051B000FBF70AFD02460B461346FB6458E0384BEA
:1051C0005B689B09002218461146C0F308033B6246
:1051D00000237B62D7E9088942464B464FF0000026
:1051E0004FF00001590141EAD261500102460B46DD
:1051F0004146B2EB010A494663EB010B4FF0000256
:105200004FF000034FEA8B1343EA9A634FEA8A1286
:10521000B2EB0A0463EB0B054FF000024FF0000302
:10522000EB0043EA5473E20014461D464346E3187C
:105230003B604B4645EB03037B604FF000024FF0B1
:105240000003D7E9004529468B02214643EA9153E2
:1052500021468A02104619467B6C0022BB61FA6126
:10526000D7E90623FBF7B0FC02460B461346FB6466
:105270000B4B5B681B0C03F0030301335B003B64C7
:10528000FA6C3B6CB2FBF3F3BB6402E0054BBB640E
:1052900000BFBB6C18465037BD46BDE8B08F00BF9D
:1052A000003802400024F40000127A0080B400AFFD
:1052B000034B1B681846BD465DF8047B704700BF72
:1052C0001C00002080B500AFFFF7F0FF0246054B41
:1052D0009B689B0A03F007030349CB5C22FA03F3A4
:1052E000184680BD00380240F88E000880B586B0B0
:1052F00000AF786000237B6100233B617B681B6803
:1053000003F00103002B0BD17B681B6803F0020341
:10531000002B05D17B681B6803F04003002B75D080
:10532000914B00221A60FDF71FFE786108E0FDF73F
:105330001BFE02467B69D31A022B01D9032389E1A4
:105340008A4B1B6803F00063002BF0D17B681B685D
:1053500003F00103002B09D07B685B689A017B682E
:105360009B681B0781491343C1F884307B681B6825
:1053700003F00203002B1FD07C4BD3F884301B0FAB
:1053800003F007033B617B685B689A017B68DB681D
:105390001B061A433B691B0774491343C1F8843049
:1053A000724BD3F88C3023F01F027B68DB69013B22
:1053B0006E491343C1F88C307B681B6803F04003CF
:1053C000002B0DD07B685B689A017B68DB681B064D
:1053D0001A437B689B681B0764491343C1F88430F8
:1053E000614B01221A60FDF7BFFD786108E0FDF70F
:1053F000BBFD02467B69D31A022B01D9032329E1A5
:105400005A4B1B6803F00063002BF0D07B681B68CD
:1054100003F00403002B05D17B681B6803F008032D
:10542000002B79D0524B00221A60FDF79DFD786168
:1054300008E0FDF799FD02467B69D31A022B01D9DA
:10544000032307E1494B1B6803F00053B3F1005FEE
:10545000EFD07B681B6803F00403002B20D0434B84
:10546000D3F888301B0F03F007033B617B681B698F
:105470009A017B685B691B061A433B691B073B4922
:105480001343C1F88830394BD3F88C3023F4F852E9
:105490007B681B6A013B1B0234491343C1F88C3003
:1054A0007B681B6803F00803002B1ED02F4BD3F83A
:1054B00088301B0E03F00F033B617B681B699A0168
:1054C0003B691B061A437B689B691B0727491343EB
:1054D000C1F88830254BD3F88C3023F440327B68F8
:1054E0005B6A22491343C1F88C30214B01221A60B8
:1054F000FDF73AFD786108E0FDF736FD02467B696D
:10550000D31A022B01D90323A4E0184B1B6803F024
:105510000053B3F1005FEFD17B681B6803F02003F9
:10552000002B00F08B800023FB60104B1B6C0F4A9C
:1055300043F0805313640D4B1B6C03F08053FB60EE
:10554000FB680C4B1B680B4A43F480731360FDF738
:105550000BFD786110E0FDF707FD02467B69D31A69
:10556000022B09D9032375E0680047420038024046
:105570007000474200700040384B1B6803F4807392
:10558000002BE8D0364B1B6F03F440733B613B6943
:10559000002B2FD07B689B6A03F440733A699A42D0
:1055A00028D02F4B1B6F23F440733B612D4B0122FE
:1055B0001A602C4B00221A60294A3B691367284B5A
:1055C0001B6F03F00103012B14D1FDF7CDFC7861B3
:1055D0000AE0FDF7C9FC02467B69D31A41F2883222
:1055E000934201D9032335E01D4B1B6F03F00203E7
:1055F000002BEED07B689B6A03F44073B3F5407FC9
:105600000DD1174B9B6823F4F8127B689B6A23F03B
:10561000704323F44073124913438B6005E0104B31
:105620009B680F4A23F4F81393600D4B1A6F7B6845
:105630009B6AC3F30B030A4913430B677B681B6820
:1056400003F01003002B04D07B6893F82C20064B4A
:105650001A60002318461837BD4680BD0070004010
:1056600000380240400E4742E011474280B582B008
:1056700000AF786039607B68002B01D1012325E001
:105680007B6893F82C30DBB2002B06D17B680022BC
:1056900083F82D207868FCF7E9FA7B68022283F80A
:1056A0002C207B681A687B6804331946104600F08A
:1056B00075FE7B6818687B685B681A46396800F07D
:1056C000CAFE7B68012283F82C2000231846083785
:1056D000BD4680BD80B586B000AFF860B9607A6025
:1056E000FB6893F82C30FB75FB7D022B01D1022364
:1056F00021E0FB7D012B02D0FB7D052B18D1FB683F
:10570000022283F82C20FB681B687A68B968184667
:1057100000F00AFFBB681B68022B04D1FB6805225E
:1057200083F82C2006E0FB68012283F82C2001E09E
:10573000012300E0002318461837BD4680BD80B520
:1057400082B000AF786039607B6893F82C30DBB2B0
:10575000022B01D1022316E07B6893F82C30DBB2D8
:10576000012B0FD17B68022283F82C207B681B68F9
:105770003968184600F015FF7B68012283F82C2059
:10578000002300E0012318460837BD4680BD80B5E0
:1057900082B000AF78607B68002B01D101237BE0F1
:1057A0007B685B6A002B08D17B685B68B3F5827FFE
:1057B00009D07B680022DA6105E07B6800221A616B
:1057C0007B6800225A617B6800229A627B6893F8AA
:1057D0005130DBB2002B06D17B68002283F85020C9
:1057E0007868FCF74BF97B68022283F851207B68CC
:1057F0001B681A687B681B6822F040021A607B688D
:105800005B6803F482727B689B6803F404431A4369
:105810007B68DB6803F400631A437B681B6903F051
:1058200002031A437B685B6903F001031A437B6838
:105830009B6903F400731A437B68DB6903F0380348
:105840001A437B681B6A03F0800342EA03017B680A
:105850009B6A03F400527B681B680A431A607B68EA
:105860009B691B0C03F004017B685B6A03F0100268
:105870007B681B680A435A607B681B68DA697B682F
:105880001B6822F40062DA617B6800225A657B683B
:10589000012283F85120002318460837BD4680BDF9
:1058A00080B582B000AF78607B68002B01D1012306
:1058B0001AE07B68022283F851207B681B681A6813
:1058C0007B681B6822F040021A607868FCF71EF9BA
:1058D0007B6800225A657B68002283F851207B6830
:1058E000002283F85020002318460837BD4680BDAB
:1058F00080B588B000AFF860B9603B601346FB80AC
:10590000FDF732FBF861FB887B83FB6893F851302D
:10591000DBB2012B01D002232AE1BB68002B02D0AD
:10592000FB88002B01D1012322E1FB6893F8503062
:10593000012B01D102231BE1FB68012283F85020D7
:10594000FB68032283F85120FB6800225A65FB683C
:10595000BA681A63FB68FA889A86FB68FA88DA865E
:10596000FB6800229A63FB6800229A87FB6800228A
:10597000DA87FB6800225A64FB6800221A64FB681D
:105980009B68B3F5004F0FD1FB681B681A68FB6872
:105990001B6822F040021A60FB681B681A68FB68EB
:1059A0001B6842F480421A60FB681B681B6803F0A6
:1059B0004003402B07D0FB681B681A68FB681B6814
:1059C00042F040021A60FB68DB68B3F5006F52D109
:1059D000FB685B68002B02D07B8B012B45D1FB68F9
:1059E0001B6B1A88FB681B68DA60FB681B6B9A1CD0
:1059F000FB681A63FB68DB8E9BB2013B9AB2FB68C3
:105A0000DA8632E0FB681B689B6803F00203022B16
:105A100012D1FB681B6B1A88FB681B68DA60FB6895
:105A20001B6B9A1CFB681A63FB68DB8E9BB2013B05
:105A30009AB2FB68DA8618E0FDF796FA0246FB692F
:105A4000D31A3A689A4203D83B68B3F1FF3F02D1B8
:105A50003B68002B09D1FB68012283F85120FB68C9
:105A6000002283F85020032382E0FB68DB8E9BB288
:105A7000002BC7D153E0FB685B68002B02D07B8B07
:105A8000012B47D1FB681A6BFB681B680C3312783B
:105A90001A70FB681B6B5A1CFB681A63FB68DB8E71
:105AA0009BB2013B9AB2FB68DA8633E0FB681B6865
:105AB0009B6803F00203022B13D1FB681A6BFB688F
:105AC0001B680C3312781A70FB681B6B5A1CFB683E
:105AD0001A63FB68DB8E9BB2013B9AB2FB68DA86E5
